:1000000000308A00DF2900000A108A100A118207D6
:1000100028340C34013406340A108A100A1182077D
:10002000413444343134303442346934743400342B
:100030000A108A100A118207523445344F343A3478
:10004000203425346C34753400340A108A100A11B7
:1000500082075234453431343A34203425346C34F8
:10006000753400342D3084008313000803194628AA
:100070000130F800F701F70B3B28F80B3A284A301B
:10008000F700F70B41284428800B38280034341837
:100090004B2808124C280816831608128312B4182D
:1000A000532888125428881683168812831234190C
:1000B0005B2808135C280817831608138312B419E9
:1000C0006328881364288817831688130000831216
:1000D0000815831608116C2883120811831608115D
:1000E00083120034B5018316081600308312081AF3
:1000F0000130B5048316881600308312881A013047
:10010000F7000310F70D7708B504831608170030C1
:100110008312081B0130F700F70DF70DFC30F705CF
:100120007708B5048316881700308312881B0130C6
:10013000F700F70DF70DF70DF830F7057708B50460
:100140003508F800003408108316081008168816C1
:1001500008178817831288148316881000008312EA
:100160000815831608110000831272207808B40065
:100170000811831608110000831208158316081150
:100180000000831272207808B3000811831608114A
:1001900008128812081388138312340EF700F03007
:1001A000F70577083304F8007808B300B31FDA289E
:1001B0008316A628B108031DDF280810E0280814BC
:1001C0008316081000008312881083168810000020
:1001D00083120811831608118312320EB3000F30F8
:1001E000B3053308B400472032080F39B300B40018
:1001F0004720003483160812881208138813081148
:1002000008108810831208108316081083128810B3
:100210008316881083120811831608110F30831279
:10022000AD0032200130A2002208033C031C20292B
:100230000330B40047200530AD003220A20A142953
:100240000230B4004720A2012208033C031C3129DC
:1002500022080420A300B1012308B200A320A20AAF
:1002600024298A110A12132A2E0B3829AF014C298E
:100270002E08023C031D3F294030AF004C292E08B8
:10028000033C031D46291430AF004C292E08043CC2
:10029000031D4C295430AF0001302D02AF072F0849
:1002A0008038B000B1013008B200A32000342C081F
:1002B0000C3A03196229063A03196A29023A03190A
:1002C00070297529B1010130B200A3200230AD00C0
:1002D00032207B290130AD000230AE0034217B2971
:1002E000B1011030B200A3207B290130B1002C08ED
:1002F000B200A3207B290034AB010408AA002B1014
:10030000831B2B14240EF038A600A607E23EA7009C
:10031000323EA90024080F39A707A707A907E93E1D
:10032000A800A807A807230E0F39A807A907A80D3A
:10033000A90DA909A90D23080F39A907A60D073092
:10034000A5000A30A907A803031CA229A807A70330
:10035000031CA629A707A603031CAA29A607A50311
:10036000031CAE2925308400831307302A052A1385
:1003700084072930040203192A170008F700031D17
:10038000C9292A1BC9292A1ADB29AA19C9292030F7
:10039000CC29AA152A123030F707A4010408A300BB
:1003A0002410831B24147708AC00572123088400F1
:1003B000831324188317840A2A1FB929003484015F
:1003C00083131F308305831603170908C03989007A
:1003D00003131F129F120030031788008312870136
:1003E000880189010313A001A10100308316850053
:1003F0008800091489140915860083121F179F1796
:1004000083169F1783121F14831603170908C03918
:100410001F38890003131F129F12FF300317880033
:1004200083120313FA281430AD0032200130AD00DE
:10043000AE003421A20122080C20A20AF700AC0071
:10044000572107302202031D1B2A831686018312BF
:1004500086011430F8001F08C33978049F009F14E8
:100460009F18302A83161E088312A0001E08A100C0
:100470000930AD000130AE003421A201220818205D
:10048000A20AF700AC00572105302202031D3E2AC4
:10049000103084002108A4002008A3007C21A108BA
:1004A000031D562A2008323C0318622AA108031DA6
:1004B000622A2008963C031C622A831606108312C7
:1004C00006140A2BA108031D692A2008963C03186C
:1004D000762AA108031D762A2008FA3C031C762AF6
:1004E000831686010330831286000A2BA108031DA0
:1004F0007D2A2008FA3C03188D2A2108013C031CA0
:100500008D2A031D872A20085E3C031C8D2A831632
:1005100086010730831286000A2B2108003C03184D
:10052000A82AFF3A031D982A20085E3C0318A82A2F
:100530002108013C031CA82A031DA22A2008C23C52
:10054000031CA82A831686010F30831286000A2B0B
:100550002108003C0318C32AFF3A031DB32A2008D0
:10056000C23C0318C32A2108023C031CC32A031DF2
:10057000BD2A2008263C031CC32A831686011F308F
:10058000831286000A2B2108013C0318DE2AFF3A59
:10059000031DCE2A2008263C0318DE2A2108023C2F
:1005A000031CDE2A031DD82A20088A3C031CDE2AED
:1005B000831686013F30831286000A2B2108013CF6
:1005C0000318F92AFF3A031DE92A20088A3C031878
:1005D000F92A2108023C031CF92A031DF32A2008EA
:1005E000EE3C031CF92A831686017F3083128600B5
:1005F0000A2BA108031D052B2008313C031C052BE9
:1006000083160610831206100A2B83168601FF300C
:1006100083128600A001A1011830F8001F08C33919
:1006200078049F009F149F18132B83161E088312B3
:10063000A0001E08A1000930AD000230AE00342138
:10064000A20122082520A20AF700AC00572105309C
:100650002202031D212B103084002108A400200851
:08066000A3007C21292A63009C
:04400E00F22FFF3F4F
:00000001FF
;PIC16F887
